:020000040000FA
:10000000380720204D01000051010000530100007D
:1000100000000000000000000000000000000000E0
:10002000000000000000000000000000550100007A
:10003000000000000000000057010000590100000E
:100040005B010000790400005B0100005B0100001F
:100050005B0100005B0100005B0100005B01000030
:10006000000000005B0100005B01000000000000D8
:10007000000000005B0100005B010000BD0C0000FF
:10008000890C00005B0100005B0100005B010000C7
:100090005B0100005B0100000000000000000000A8
:1000A0005B0100005B010000000000000000000098
:1000B0005B010000000000005B0100005B0100002C
:1000C00000F002F800F032F80CA030C8083824180C
:1000D0002D18671EA246AB4654465D46AC4201D180
:1000E00000F024F87E460F3EB6460FCC0126334280
:1000F00000D0FB1A3343A246AB461847340D00002C
:10010000440D00000000000000230024002500260C
:10011000103A01D378C1FBD8520700D330C100D5C3
:100120000B6070471FB51FBD10B510BD00F03DF846
:100130001146FFF7F7FF00F02BFE00F055F803B46F
:10014000FFF7F2FF03BC00F0DFFD000006480047A8
:10015000FEE7FEE7FEE7FEE7FEE7FEE703480449A9
:10016000024A044B70470000C100000038062020FE
:10017000380720203806202010B5044603E000F0A0
:10018000FFFD401C08D020780549641C0028F6D1EA
:100190000A2000F0F5FD10BD0020C04310BD000096
:1001A000E8042020704770477047754600F024F837
:1001B000AE46050069465346C008C000854618B0E3
:1001C00020B5FFF7CBFF60BCB64600260027C0C5B0
:1001D000C0C5C0C5C0C5C0C5C0C5C0C5C0C5403DFF
:1001E000490849008D46704710B50446C046C046D0
:1001F0002046FFF7A4FF10BD0048704700002020F4
:10020000811E091F00BFFCD270470000F0B5684A8C
:100210008218294BC318087920280DD000281DD139
:100220000C68641E5460D56E244C25408835D56614
:100230001646703688251DE00C68641E5460D46E26
:100240001E4D2C401E4EA419D466146F2C40A419C8
:100250001467012465071B4C16460BE00C68640804
:100260005460D66E154C26400525ED017619D666EC
:1002700016467036376827402F433760D46A4E4D94
:100280002C40D462146B2C4014630024D464146595
:100290008F24E443D56F2540D5671D6825401D6038
:1002A00049790143BD2008401168074B0B40C01835
:1002B000801C1060F0BDC0468418000024F93FF097
:1002C00001040000FFFFFFCF4000FFCFB0B54A6838
:1002D000364BC250364A80180A78222A58D89300E2
:1002E00001A4E3589F46C046870300009103000025
:1002F00087030000910300009103000091030000B8
:10030000910300009103000091030000910300009D
:10031000910300009103000091030000910300008D
:100320009103000091030000750300009103000099
:100330007503000091030000910300009103000089
:10034000910300009103000091030000910300005D
:10035000910300009103000091030000910300004D
:100360009103000091030000750300009103000059
:100370007503000003231B0704689C4301235B07EC
:10038000E318036004E003231B0704689C43046034
:100390000B69C360CB68074C1C40C36A064D1D4007
:1003A0002B19C362097A11430160B0BD081800001F
:1003B00004180000777702008888FDFF10B5072336
:1003C0009B04194092008018024A84589C4361188B
:1003D000815010BD3018000010B5029CA400001917
:1003E00011431943014A815010BDC0465018000006
:1003F00092008018014A81507047C04610180000D2
:1004000010B50122120383180C789C604B7883503E
:100410008978014A815010BD0C110000B0B511223D
:10042000120283580124A34383500B888C781C4309
:100430008B882343094C1C408358094D1D40631988
:1004400083508B79CC791C43097A21437E23194050
:10045000801842689A4351184160B0BD1867000087
:10046000E798FDFF10B50122120383180C789C60F9
:100470004978815010BD000070B50020C143134879
:100480000246103A13685A06114A02D45B0710D488
:1004900070BD1468240601D50C4600E001240D4D02
:1004A0002E6834192C6004684025254305605B07DD
:1004B000EED51268120700D40121074A13685918B3
:1004C0001160016804220A43026070BD48300A408E
:1004D00080330A40E40420206000202080B5AC492D
:1004E000802200200870521E0831002AF9D1A84944
:1004F0004A1C8023107008325B1EFBD18A1C8023AB
:10050000107008325B1EFBD1CA1C802310700832A9
:100510005B1EFBD10A1D8023107008325B1EFBD1CD
:100520004A1D8023107008325B1EFBD18A1D802378
:10053000107008325B1EFBD1C91D80220870083183
:10054000521EFBD100F0ACF880BDC046F0B581B0C2
:10055000AE200024214600F01DF92046214600F07F
:1005600019F91020214600F015F9402630462146A1
:1005700000F010F98120214600F00CF9CF2021462F
:1005800000F008F9A120214600F004F9C820214616
:1005900000F000F9A6252846214600F0FBF8A82027
:1005A000214600F0F7F83F20214600F0F3F8D32071
:1005B000214600F0EFF82046214600F0EBF8D52068
:1005C000214600F0E7F880273846214600F0E2F89F
:1005D000D920214600F0DEF8F120214600F0DAF8BB
:1005E000DA20214600F0D6F81220214600F0D2F899
:1005F000DB20214600F0CEF83046214600F0CAF854
:100600002020214600F0C6F80220214600F0C2F862
:100610008D20214600F0BEF81420214600F0BAF8E3
:10062000A420214600F0B6F82846214600F0B2F892
:100630005748047008307F1EFBD15548411C80226A
:100640000C700831521EFBD1811C80220C700831C5
:10065000521EFBD1C11C80220C700831521EFBD1EE
:10066000011D80220C700831521EFBD1411D8022D9
:100670000C700831521EFBD1811D80220C70083194
:10068000521EFBD1C01D802104700830491EFBD1D1
:1006900000F006F8AF20002100F07CF801B0F0BDBA
:1006A000F0B585B000203A4F02905038C0B2002417
:1006B000214600F06FF82046214600F06BF810202C
:1006C000214600F067F802255948056001260660BA
:1006D0000A24204600F03CFB55480561204600F006
:1006E00037FB53480661204600F032FB782000F0CB
:1006F00041FA4F480560204600F02AFB4C4806604E
:10070000204600F025FB4A480661204600F020FB09
:10071000402000F02FFA049545480560204600F07F
:1007200017FB434806600546204600F011FB039680
:100730002E61204600F00CFB80260197387800F0EF
:1007400019FA3B49049808600A24204600F000FB8F
:10075000039D37480560204600F0FAFA34480561E9
:10076000204600F0F5FA761E0837002EE6D1304C10
:10077000049D2561039820600A2000F0E9FA2560B5
:10078000019F7F1C0298401C08288DD105B0F0BD48
:1007900064002020F0B583B001910290244F02261E
:1007A0003E6001253D600A24204600F0D1FA3E61FA
:1007B000204600F0CDFA3D61204600F0C9FA7820CD
:1007C00000F0D8F93E60204600F0C2FA3D602046B5
:1007D00000F0BEFA3D61204600F0BAFA0199481EC9
:1007E0008141880100F0C6F93E60204600F0B0FA71
:1007F0003D60204600F0ACFA3D61204600F0A8FACA
:10080000029800F0B7F93E60204600F0A1FA3D6082
:10081000204600F09DFA3D61204600F099FA3E61C5
:100820003D60204600F094FA3E6003B0F0BDC04643
:1008300090120A40B0B5244B852018600122910324
:10084000224801608421D9645106016086219962A1
:10085000510501608821D962910501601C4C8221FB
:1008600021651C494D1C65651B4D1D661B4D1D6199
:10087000812323606360A163E163A165E1650346B1
:10088000303BD2061A600346403B03241C60D21C56
:100890000260134802681023134303608139114832
:1008A000026A0A43026202680A4302600E48016853
:1008B0000E4A0A4302600E48016A44221143016253
:1008C000016811430160B0BD90804240D0120A40DF
:1008D0000480424081000400810001008100050085
:1008E000A0130A4028100A4090330A40101000005C
:1008F00028300A40F0B581B0194C1A492046FFF75C
:100900007FFD19492046FFF781FC00250095204610
:1009100029462A462B46FFF75FFD204629462A46F0
:10092000FFF74CFD304E204631462A46FFF760FD6A
:1009300001270097204629462A462B46FFF74CFD03
:10094000204629463A46FFF739FD204631463A46C9
:10095000FFF74EFD054887600321016001B0F0BD3F
:1009600000808640F00D0000F40D000000918640EC
:10097000F0B581B0194C1A492046FFF741FD1949DD
:100980002046FFF743FC00250095204629462A46CD
:100990002B46FFF721FD204629462A46FFF70EFD8C
:1009A000114E204631462A46FFF722FD01270097C7
:1009B000204629462A462B46FFF70EFD20462946AB
:1009C0003A46FFF7FBFC204631463A46FFF710FD5A
:1009D000064887600321016001B0F0BD0000874038
:1009E000FC0D0000000E0000AF0400000011874065
:1009F0000C48002101600320C1430B480246083A1D
:100A000013680B40136001680122914301601102D9
:100A100003688B4303601103001F02680A430260EE
:100A20007047C04608030B4008010B4005480421ED
:100A300001601F21416000218160016805220A4395
:100A40000260704710E000E010B5084C08492046ED
:100A5000FFF7D6FC07492046FFF738FC0648016837
:100A60000122114301600548026010BD00400840AA
:100A7000080E00000C0E00002850084008510840E5
:100A800010B5154C15492046FFF7ECFC14492046DB
:100A9000FFF7C4FC0320C103124802688A430260C6
:100AA0000169114A0A4011320261416917220A4361
:100AB00028218A43426141680122114043689343DF
:100AC000591841609102094B1C680C431C60016875
:100AD0001143016010BDC04600801040200E000090
:100AE000220E0000009110400000FFFF28901040EF
:100AF00080B500F015F8FFF79DFEFFF779FFFFF7CF
:100B000037FFFFF7F7FEFFF79FFFFFF7B9FFFFF78C
:100B10008DFF7420014900220A5480BD3C0520202D
:100B200070B50C480C4941600C4A51600C4B59603F
:100B30000C4C61600C4D69600C4E71600C49016099
:100B4000116019602160296031601020FFF758FBA7
:100B500070BDC04600080A40030000B100280A40EA
:100B60000008874000888640004808400088104000
:100B700001000026F0B581B0044640B2414E002885
:100B800002D40220306101E0022030600A252846AC
:100B900000F0DEF801273760284600F0D9F8376109
:100BA000600602D40220306101E0022030600A2594
:100BB000284600F0CDF83760284600F0C9F83761C4
:100BC000A00602D40220306101E0022030600A2534
:100BD000284600F0BDF83760284600F0B9F83761C4
:100BE000E00602D40220306101E0022030600A25D4
:100BF000284600F0ADF83760284600F0A9F83761C4
:100C0000200702D40220306101E0022030600A2572
:100C1000284600F09DF83760284600F099F83761C3
:100C2000600702D40220306101E0022030600A2512
:100C3000284600F08DF83760284600F089F83761C3
:100C4000A00702D40220306101E0022030600A25B2
:100C5000284600F07DF83760284600F079F83761C3
:100C6000E00702D10220306101E0022030600A2456
:100C7000204600F06DF83760204600F069F83761D3
:100C800001B0F0BD90120A40B0B509480068C0B28A
:100C900001280CD1074C2068C0B200F0A1F8064D25
:100CA0002868C0B200F09CF8002028602060B0BD29
:100CB00020500840E40420206000202010B50E4899
:100CC0000068C0B20B2815D14848C1690B4A138887
:100CD0007E2B0AD813885C1C1480094AD154026800
:100CE000D207FCD1C9B2816101E000201080054823
:100CF0000121017010BDC046209010403606202012
:100D0000B4052020340620207047000080B5FFF78E
:100D1000EFFE0120C003044908600449086004A0F4
:100D2000FFF72AFA80BDC04680E200E000E100E063
:100D3000426F61726420496E6974205B5B202A2ACD
:100D4000204C434B4642202A2A205D5D0D000000C6
:100D5000B0B50A490A684001262306E0A41A0D1F0F
:100D60002D686419E318834206D214460A68944237
:100D7000FCD0F3D9A41AF5E7B0BDC04618E000E0F6
:100D80001A490A68D207FCD1C2B28A617047C046CC
:100D9000FFF7BCFFFFF7ACFEFFF7D8FBFFF79EFBAA
:100DA000012001040B4A1160C00310600A4A11605F
:100DB000022111601060094C7D2041010025204670
:100DC0002A46FFF715FB012220462946FFF710FBB4
:100DD000F2E7C04680E200E000E100E000808640EB
:100DE00002490A68D207FCD1886170470891104017
:100DF00008070000A00F0000000100000807000025
:100E0000A00F0000000100000807FF000200000022
:100E10001A060000010000000000000000000000B1
:100E20000800000018000000003000000000000072
:100E3000400E0000000020203807000008010000DC
:04000005000000C136
:00000001FF
